:100000000C945D000C9485000C9485000C94850084
:100010000C9485000C9485000C9485000C9485004C
:100020000C9485000C9485000C9485000C9485003C
:100030000C9485000C9485000C9485000C9485002C
:100040000C948A150C9485000C9458150C94321558
:100050000C9485000C9485000C9485000C9485000C
:100060000C9485000C94850000000008000201003B
:100070000003040700000000000000000000000072
:10008000250028002B0000000000240027002A0083
:10009000040404040404040402020202020203032E
:1000A0000303030301020408102040800102040836
:1000B0001020010204081020D41511241FBECFEF18
:1000C000D8E0DEBFCDBF12E0A0E0B1E0ECE4F4E3A5
:1000D00002C005900D92A631B107D9F723E0A6E141
:1000E000B2E001C01D92AD3DB207E1F710E0CDE5F1
:1000F000D0E004C02197FE010E94FC19CC35D10745
:10010000C9F70E94A6160C94241A0C940000CF93F1
:10011000DF93EC01FA013296E60FF71FDC019D0137
:100120002C1B3D0BCF01861B970B4D91442311F0E7
:100130004193F5CFAC01421B530B640F751FFB01BC
:100140003297308361507109FB012083DF91CF9199
:10015000089580911F0390912003009711F480E08F
:100160000895DC01ED91FC910688F789E02D099551
:10017000811123C08091BA039091BB03892B79F739
:100180008DEF9FEF9093BB038093BA0380911F0381
:1001900090912003DC01ED91FC910680F781E02D28
:1001A000099580911F0390912003DC01ED91FC9152
:1001B0000488F589E02D0995D2CF81E008958CBDA2
:1001C0009DBD089590E0FC01EC55FF4F24918057B0
:1001D0009F4FFC018491882399F090E0880F991F2C
:1001E000FC01EA57FF4FA591B491FC01E458FF4F81
:1001F000859194918FB7F894EC91E22BEC938FBF9B
:100200000895FC0182819381A481B5818093B0031C
:100210009093B103A093B203B093B3038BE597E03F
:100220009093B7038093B6031092B5031092B40372
:100230008BE193E00895FC01818D928D08950895DE
:10024000AF92BF92CF92DF92EF92FF920F931F93E4
:10025000CF93DF936C017B018B01040F151FEB0122
:100260005E01AE18BF08C017D10759F06991D601D9
:10027000ED91FC910190F081E02DC6010995892B4B
:1002800079F7C501DF91CF911F910F91FF90EF900A
:10029000DF90CF90BF90AF900895FC01538D448DB7
:1002A000252F30E0842F90E0821B930B541710F021
:1002B000CF96089501970895FC01918D828D98172E
:1002C00061F0A28DAE0FBF2FB11D5D968C91928D06
:1002D0009F5F9F73928F90E008958FEF9FEF089537
:1002E000FC01918D828D981731F0828DE80FF11D00
:1002F000858D90E008958FEF9FEF0895FC01918D1B
:10030000228D892F90E0805C9F4F821B91098F7313
:100310009927089582E492E00E947E0121E0892BD2
:1003200009F420E0822F089580E090E0892B29F0E5
:100330000E948A0181110C9400000895FC01A48D93
:10034000A80FB92FB11DA35ABF4F2C91848D90E0F7
:1003500001968F739927848FA689B7892C93A089DA
:10036000B1898C91837080648C93938D848D981364
:1003700006C00288F389E02D80818F7D80830895F7
:10038000EF92FF920F931F93CF93DF93EC0181E0E5
:10039000888F9B8D8C8D98131AC0E889F98980818C
:1003A00085FF15C09FB7F894EE89FF896083E889BF
:1003B000F98980818370806480839FBF81E090E0B1
:1003C000DF91CF911F910F91FF90EF900895F62E3E
:1003D0000B8D10E00F5F1F4F0F731127E02E8C8DD8
:1003E0008E110CC00FB607FCFACFE889F98980811D
:1003F00085FFF5CFCE010E949E01F1CFEB8DEC0F72
:10040000FD2FF11DE35AFF4FF0829FB7F8940B8F39
:10041000EA89FB8980818062CFCFCF93DF93EC01A3
:10042000888D8823B9F0AA89BB89E889F9898C91DC
:1004300085FD03C0808186FD0DC00FB607FCF7CF98
:100440008C9185FFF2CF808185FFEDCFCE010E9498
:100450009E01E9CFDF91CF9108953FB7F894809145
:100460001B0290911C02A0911D02B0911E0226B5A4
:10047000A89B05C02F3F19F00196A11DB11D3FBFDC
:10048000BA2FA92F982F8827BC01CD01620F711DAB
:10049000811D911D42E0660F771F881F991F4A95A5
:1004A000D1F708958F929F92AF92BF92CF92DF9231
:1004B000EF92FF924B015C010E942D026B017C01C7
:1004C0000E942D026C197D098E099F09683E7340B8
:1004D00081059105A8F321E0821A9108A108B108CD
:1004E00088EEC80E83E0D81EE11CF11C8114910433
:1004F000A104B10429F7FF90EF90DF90CF90BF9057
:10050000AF909F908F9008952FB7F8946091170245
:10051000709118028091190290911A022FBF0895CC
:10052000EF92FF920F931F93CF93DF9300D000D0F1
:10053000CDB7DEB7FA0120E08E010F5F1F4F9E2F6F
:100540009F77EE0FEF2FEE1FFF0BF195309709F01D
:100550009068D801A20FB11D9C932F5F309779F757
:1005600030E0FB01E21BF30B8483FB01E21BF30B86
:100570003596D801CD01801B910B821793071CF48F
:100580008D918193F7CF2F5F3F4F80911F03909103
:1005900020038901040F151F621B730B6B5F7F4FD4
:1005A000DC01ED91FC910280F381E02DA801099519
:1005B0007C010E9484026093A3037093A403809340
:1005C000A5039093A60381E00E151F0509F080E0B6
:1005D0000F900F900F900F90DF91CF911F910F917F
:1005E000FF90EF900895CF92DF92EF92FF92CF931A
:1005F000DF93EC010E9484026B017C0180911F0358
:1006000090912003DC01ED91FC910084F185E02DB7
:100610000995892B69F40E9484026C197D098E0961
:100620009F0968397A438105910540F380E00DC048
:1006300080911F0390912003DC01ED91FC910284D5
:10064000F385E02D0995888381E0DF91CF91FF90BC
:10065000EF90DF90CF9008953F924F925F926F920C
:100660007F928F929F92AF92BF92CF92DF92EF9242
:10067000FF920F931F93CF93DF931F92CDB7DEB7F7
:100680005C0181E293E00E94F302811116C010E048
:1006900000E0C8010F90DF91CF911F910F91FF9063
:1006A000EF90DF90CF90BF90AF909F908F907F9012
:1006B0006F905F904F903F90089530902103198282
:1006C00032E2832E33E0932EEE24E394F12CD12CEE
:1006D000C12C412C512C32014394CE0101960E9431
:1006E000F3028823A1F287010F5F1F4F8981F40174
:1006F00081934F01282F2F7730E0249DA001259D65
:10070000500D349D500D1124C40ED51E27E0440C0D
:10071000551C661C771C2A95D1F787FD31C0F32D37
:10072000F07F3F2E8FEF800FD5018C93B0E3FB134A
:100730003EC0C8018F5D9C4F0E94F302882309F4DC
:10074000A6CFC7018D5D9C4F0E94F302882309F458
:100750009ECF0E5F1F4FD501EC91F0E0E55EFC4FA0
:10076000E780F12CFE2CEE248085E80EF11C8091B0
:10077000210381FF03C0B2E0EB0EF11C92E01AC02E
:1007800078010530110509F0A8CF8FEF9FEF909306
:10079000BB038093BA0380911F0390912003DC0177
:1007A000ED91FC910488F589E02D099570CF90E0DA
:1007B000F12CE12C692E712C601A710A8EEF882EB3
:1007C00099249A94C301800F911F8C159D0570F593
:1007D000CE0101960E94F302882309F458CF80913C
:1007E000B8039091B9030097B1F0E0E33E1213C053
:1007F000D5012C91F401E21BF1099F01200F311F5B
:10080000E216F30640F4DC01ED91FC910190F081D9
:10081000E02D698109950038110528F48981F801D6
:10082000E55EFC4F86830F5F1F4FCCCF8091B803EE
:100830009091B903892B09F02CCF0138110508F0EC
:1008400026CF27CFEF92FF920F931F93CF93DF9383
:10085000EC018B017A010E948402FE01E857FF4FF0
:1008600060837183828393838C819D81DC01ED9110
:10087000FC910280F381E02DA701B801DF91CF91B7
:100880001F910F91FF90EF9009941F93CF93DF93E7
:10089000EC01162F0E948402FE01E857FF4F60838F
:1008A0007183828393838C819D81DC01ED91FC9126
:1008B0000190F081E02D612FDF91CF911F9109947C
:1008C000FC0120812EBD9B012150310941F0518155
:1008D0000DB407FEFDCF4EB55EBD4193F5CF61501F
:1008E0007109860F971F0DB407FEFDCF2EB5FC01D1
:1008F00020830895E0913C02F0913D028081909127
:100900003B02892B80830895E0913C02F0913D02E7
:10091000908180913B0280958923808308958EBDCC
:1009200000000DB407FEFDCF8EB50895AF92BF92C3
:10093000CF92DF92EF92FF920F931F93CF93DF93AB
:10094000CDB7DEB728970FB6F894DEBF0FBECDBF88
:100950008C017B016A0180913F028333E1F45801ED
:10096000A40EB51EA016B10609F46FC00E9484043F
:1009700080EF0E948F04812F0E948F04802F0E949D
:100980008F040F5F1F4FF70181917F010E948F0439
:100990000E947A04E7CF5B01A40EB51E8433C1F434
:1009A0000E94840419830A838D2D80688B83CC82F6
:1009B00064E070E0CE0101960E946004AE14BF04B2
:1009C00009F441C0F70181917F010E948F04F6CFA5
:1009D0000E9484040F3F110509F028F419820A834C
:1009E00084E08B830CC017FD17C019820A8333E0A3
:1009F000169507953A95E1F7007E0C600B8386E02B
:100A0000C816D104A0F5F701DE011496EA15FB051E
:100A100099F081918D93FACFC80126E0969587953C
:100A20002A95E1F7807E19830A830115104C10F492
:100A30008461D7CF8C61D5CFB6016D5F7F4FCE017A
:100A400001960E9460040E947A04C60128960FB69F
:100A5000F894DEBF0FBECDBFDF91CF911F910F91F4
:100A6000FF90EF90DF90CF90BF90AF90089563E03C
:100A700070E0CE0101960E946004F70181917F0130
:100A80000E948F04AE14BF04C1F7DDCFCF93DF9374
:100A90001F92CDB7DEB7898341E050E0BE016F5FA2
:100AA0007F4F90E080E00E9496040F90DF91CF91FD
:100AB000089590E020913F02233339F40C96982F4B
:100AC000990F990F990F80E008954896F8CFDA01B1
:100AD000E0914002F0E0FE2FEE27E60FF71F90E0D6
:100AE000982F8827A901BD018E0F9F1F0C94960493
:100AF000CF93DF9300D0CDB7DEB779836A8322E04E
:100B000030E0AE014F5F5F4F60E170E00E9467052B
:100B10000F900F90DF91CF910895CF93DF9300D086
:100B2000CDB7DEB779836A8322E030E0AE014F5F54
:100B30005F4F64E070E00E9467050F900F90DF91B7
:100B4000CF910895CF93DF931F92CDB7DEB7209159
:100B5000400230E0322F2227260F371F90E0982FD7
:100B60008827498341E050E0BE016F5F7F4F820FCD
:100B7000931F0E9496040F90DF91CF910895CF9319
:100B8000DF931F92CDB7DEB76983DC01ED91FC9155
:100B90000280F381E02D41E050E0BE016F5F7F4FA6
:100BA00009950F90DF91CF9108950895FC019485E8
:100BB000FB018485981303C081E0943008F080E045
:100BC0000895CF93DF931F92CDB7DEB76983DC0121
:100BD000ED91FC910280F381E02D41E050E0BE01F7
:100BE0006F5F7F4F09950F90DF91CF910895089522
:100BF000FF920F931F93CF93DF93EB01FC01178AB2
:100C0000168A2A81211109C02B81211106C02C814D
:100C1000211103C02D81222301F141155105E9F075
:100C20008A01FC01F08C80E591E00E94DF00AE01BA
:100C30004E5F5F4F24E030E06CE070E08F2D0E944B
:100C40006705B8018F2D0E94780581E090E0DF9163
:100C5000CF911F910F91FF90089580E0F7CFFC0195
:100C6000848595850895FC018489958908952FE8E8
:100C700031E0FC0131832083FB0140895189628985
:100C80007389FC0142835383648375830895DC0177
:100C9000ED91FC91048CF58DE02D099490E080E0BD
:100CA0000895FC01768765870895DC01ED91FC913C
:100CB000068CF78DE02D099591E089270895862F00
:100CC000089581E08627089521E0FC018485843021
:100CD00008F020E0822F0895FB0101900020E9F741
:100CE0003197AF01461B570BDC01ED91FC9102805F
:100CF000F381E02D09948F929F92AF92BF92EF9271
:100D0000FF920F931F93CF93DF93CDB7DEB7A197D9
:100D10000FB6F894DEBF0FBECDBF7C01FA01CB0148
:100D200019A2223008F42AE08E010F5D1F4F822E97
:100D3000912CB12CA12CBF01A50194010E94DA19BC
:100D4000F901CA016A300CF5605DD8016E938D011E
:100D5000232B242B252B79F790E080E0109721F0AE
:100D6000BD01C7010E946C06A1960FB6F894DEBFC4
:100D70000FBECDBFDF91CF911F910F91FF90EF90EC
:100D8000BF90AF909F908F900895695CDECFEF92F7
:100D9000FF920F931F93CF93DF93EC017B018A01A6
:100DA00061E971E082E492E00E946C06209729F0EC
:100DB000BE0182E492E00E946C0663EA71E082E484
:100DC00092E00E946C06E7010E0D1F1DC017D107AF
:100DD00031F0699182E492E00E94C001F7CF66EAA7
:100DE00071E082E492E0DF91CF911F910F91FF902B
:100DF000EF900C946C068F929F92AF92BF92CF921D
:100E0000DF92EF92FF920F931F93CF93DF937C01BA
:100E1000EB016C0182E0C80ED11C4701E5E08E0EAB
:100E2000911C10E000E0F60141916F0150E070E08C
:100E300060E02AE0CE010E947B065C01E881F98136
:100E40000190F081E02D6EE2CE0109958A0D9B1D87
:100E5000080F191FC814D90431F7F701458150E074
:100E600070E060E02AE0CE010E947B06800F911FB7
:100E7000DF91CF911F910F91FF90EF90DF90CF9076
:100E8000BF90AF909F908F900895AF92BF92CF92F6
:100E9000DF92EF92FF920F931F93CF93DF9300D0D7
:100EA00000D0CDB7DEB78C016B017A0180913F0293
:100EB0008333E9F45B016801C40ED51EC016D10668
:100EC000A9F10E9484048FE00E948F04812F0E9468
:100ED0008F04802F0E948F040F5F1F4F80E00E94BD
:100EE0008F04F50181935F010E947A04E7CF843378
:100EF00069F50E94840419830A838F2D8F778B8371
:100F0000EC8264E070E0CE0101960E946004A701CB
:100F100070E060E0C6010E94141AE114F10421F0AF
:100F2000B701C6010E9460040E947A04C7010F90B5
:100F30000F900F900F90DF91CF911F910F91FF9025
:100F4000EF90DF90CF90BF90AF9008950E948404FF
:100F50000F3F110509F030F419820A831B8263E008
:100F600070E0D1CF17FD0BC019820A8333E01695CC
:100F700007953A95E1F7007E08600B83F0CFC80132
:100F800026E0969587952A95E1F7807E19830A8356
:100F90000115104C18F480618B83E1CF8861FCCF80
:100FA000CF93DF931F92CDB7DEB72091400230E0A0
:100FB000322F2227260F371F90E0982F882741E0F5
:100FC00050E0BE016F5F7F4F820F931F0E94450765
:100FD00089810F90DF91CF910895CF93C82F462F2D
:100FE00061E070E00E94A20561E070E08C2F0E9439
:100FF000D0078111F9CFCF910895CF93C82F80E505
:1010000091E00E94DF0068E070E08C2FCF910C949B
:10101000ED07CF93C82F80E591E00E94DF0060E1EB
:1010200070E08C2FCF910C94ED07CF93DF93EC0100
:10103000888D843020F40E94090884E0888FDF9135
:10104000CF910895CF93C82F80E591E00E94DF00F3
:1010500063E070E08C2FCF910C94D007CF93DF9397
:10106000EC018C858430D0F40E942208843189F010
:10107000882379F0883169F021E08C3159F4E881D6
:10108000F9810084F185E02DCE01099521E0892BBD
:1010900009F420E0822FDF91CF91089580E0FBCF0B
:1010A000CF92DF92EF92FF92CF93DF93EC018C858A
:1010B000843068F40E94FD070E9484026B017C0169
:1010C0008C850E942208811109C084E08C87DF9101
:1010D000CF91FF90EF90DF90CF90089561E070E0A6
:1010E00080E090E00E9452020E948402AB01BC01A9
:1010F0004C195D096E097F098D859E85B0E0A0E0E1
:10110000481759076A077B07D8F28C850E9409089F
:10111000DCCFCF93FC01C08D80E591E00E94DF0021
:1011200060E270E08C2F0E94ED0762E070E08C2F8F
:101130000E94D00784FD16C062E070E08C2F0E94F0
:10114000D00783FF0AC048E162E070E08C2F0E9464
:10115000A20580E090E0CF91089580E591E00E94A3
:10116000DF00E3CF40E162E070E08C2F0E94A20537
:1011700081E0F0CFCF93DF931F92CDB7DEB741E090
:1011800050E0BE016F5F7F4F90E080E00E94450716
:1011900089810F90DF91CF910895CF93DF93C4E1C0
:1011A000D0E00E94BA08882361F061E070E080E03E
:1011B00090E00E9452022197A1F780E0DF91CF9149
:1011C000089581E0FBCFCF92DF92EF92FF920F93D1
:1011D0001F93CF93DF93CDB7DEB7C454D1090FB6B9
:1011E000F894DEBF0FBECDBFFC0182819381A48144
:1011F000B58123968CAF9DAFAEAFBFAF239721E0F3
:1012000023962FAF239723964CAD5DAD6EAD7FAD8A
:1012100023974BAB5CAB6DAB7EAB89AF9AAFABAFFB
:10122000BCAF8DA79EA7AFA7B8AB28AB4DA55EA559
:101230006FA578A94FA358A769A77AA72EAB4BA98A
:101240005CA96DA97EA949A35AA36BA37CA38B8F2C
:101250009C8FAD8FBE8F4FE851E05C8B4B8B3FEF87
:101260003D8B3E8B3F8B188E5E874D872AA7CFA084
:10127000D8A4E9A4FAA4CF86D88AE98AFA8A2CA34A
:1012800009A11AA12BA13CA109871A872B873C87AA
:101290005A8349838B839C83AD83BE8380914102B3
:1012A0008111CBC060E372E080E090E00E945202C6
:1012B000DFB6F8940AE910E04EEAE42E40E0F42E9E
:1012C00080913E02811142C0F8018491F70194910E
:1012D000E82FF0E0EE0FFF1FEA57FF4FA591B49102
:1012E0008C91982321F5E2E7F0E08491F701949145
:1012F000F80124912223D9F0882359F0833009F48E
:10130000DDC008F0D0C0813009F4DEC0823009F4BD
:10131000DFC0E22FF0E0EE0FFF1FE458FF4FA59172
:10132000B4918FB7F8942C91922B9C938FBF8AE045
:101330000E94E2008CB580618CBD8CB580648CBD50
:101340008DE00E94E2008BE00E94E20080913E026C
:101350008F5F80933E02DFBEF8010491E02FF0E042
:10136000EE0FFF1FE458FF4F8591949190933D023B
:1013700080933C02F701E490E0923B028AE00E94F5
:10138000E2000E947A0480E591E00E94DF0084E39D
:1013900080933F0280E80E9446050E94CD08882382
:1013A00009F4A3C088E00E9446050E94BA0888306C
:1013B00009F09BC080E10E9446050E94BA08803176
:1013C00009F093C080E00E9446050E94BA08182FD9
:1013D00081118BC041E050E0BE016D5B7F4F8FE11A
:1013E00090E00E94450724968FAD2497833009F042
:1013F0007CC080E48093400242E06EE170E0812F87
:101400000E94A20542E06FE170E0812F0E94A205D8
:101410001F5F143089F740E06EE170E0812F0E9479
:10142000A20540E06FE170E0812F0E94A2051F5FDE
:10143000183089F781E08093410280E591E00E94B5
:10144000DF0046E050E062E071E089E090E00E9459
:10145000960444E050E0BE016D5F7F4F8FE090E066
:101460000E94960444E050E0BE01615F7F4F81E03E
:1014700090E00E94960444E050E0BE016B5E7F4F16
:1014800085E090E00E94960481E08C8789859A85AA
:10149000AB85BC858093050390930603A093070357
:1014A000B093080391C08730B1F08830D1F0843018
:1014B00009F02FCF809180008F7D03C08091800044
:1014C0008F778093800025CF84B58F7784BD21CF1F
:1014D00084B58F7DFBCF8091B0008F778093B00073
:1014E00018CF8091B0008F7DF9CF87E380933F02C2
:1014F00080E80E9446050E94CD08882339F188E0E3
:101500000E9446050E94BA08883001F580E10E94D9
:1015100046050E94BA08182F8031C1F480E00E946D
:1015200046050E94BA08811111C041E050E0BE0199
:101530006D5B7F4F89E390E00E94450724968FAD55
:101540002497843019F41093400274CF83E380937E
:101550003F0280E80E9446050E94CD08882391F151
:1015600080E10E9446050E94BA08803159F582E167
:101570000E9446050E94BA08823121F580E00E944F
:1015800046050E94BA0881111DC084E08093400284
:1015900015E525961FAF259741E050E0BE016C5B35
:1015A0007F4F8BE190E00E94960424961FAF249712
:1015B00041E050E0BE016D5B7F4F8AE190E00E9408
:1015C000960438CF10923F02CC5BDF4F0FB6F894F1
:1015D000DEBF0FBECDBFDF91CF911F910F91FF9066
:1015E000EF90DF90CF9008951F93CF93DF931F92DA
:1015F000CDB7DEB7182F80E591E00E94DF00812F84
:101600000E94590527E0129FF0011124E15EFD4F71
:1016100022813381377041E050E0BE016F5F7F4F20
:10162000820F931F0E94450789810F90DF91CF9110
:101630001F910895FC01808D843040F4218D328DFE
:10164000232B21F00E94F40A90E008958FEF9FEF82
:101650000895CF93DF93FC012485243028F08FEF89
:101660009FEFDF91CF910895EC010190F081E02D83
:101670000084F185E02D0995892B89F38C850E94E2
:10168000F40A90E0EECFDA01E0914002F0E0FE2FA4
:10169000EE27E60FF71F90E0982F8827A901BD01DC
:1016A0008E0F9F1F0C9445078F929F92AF92BF920F
:1016B000CF92DF92EF92FF921F93CF93DF93CDB73C
:1016C000DEB72C970FB6F894DEBF0FBECDBF2091CA
:1016D0003F0214E0222339F16B017C0180E591E0A7
:1016E0000E94DF005E0127E0A20EB11C450110E060
:1016F00063E070E0812F0E94D007F40181934F01D5
:10170000882349F11F5F143099F710E0F5018191AA
:101710005F018D31D9F08831C9F08A518230B0F043
:101720001F5F143099F7812F2C960FB6F894DEBF07
:101730000FBECDBFDF91CF911F91FF90EF90DF9053
:10174000CF90BF90AF909F908F90089560E170E030
:10175000812F0E94ED07A12EB12C83EE93E001971B
:10176000F1F742E870E060E0812F0E94A2054FEFA0
:1017700062E070E0812F0E94A205B601C114D1047D
:1017800091F4809100019091010101968115F0EC96
:101790009F0708F45CC09093010180930001609161
:1017A000000170910101812F0E948D0586E0E8E023
:1017B000F1E0DE01119601900D928A95E1F7F701B3
:1017C00083818F778C8384818D8385818E83A7012C
:1017D0004E5F5F4F24E030E06CE070E0812F0E94AC
:1017E0006705B601812F0E94780526E030E0AE0142
:1017F0004F5F5F4F66E070E0812F0E94670561E0F8
:1018000070E0812F0E94ED0727E02A9DC0012B9DEB
:10181000900D11249C01215E3D4F7901F901118247
:10182000108222E030E0AE01455F5F4F68E270E079
:10183000812F0E94430B8B859C85982789279827A9
:10184000F701938382831682158214826CCF80E025
:1018500090ECA1CFCF92DF92EF92FF920F931F9364
:10186000CF93DF9300D000D000D0CDB7DEB78C018E
:101870006B017A01FC01808D843010F40E9409080C
:101880008FE891E09A838983F60182819381A48114
:10189000B5818B839C83AD83BE83B701CE01019656
:1018A0000E94540BF801808F8430A0F4F586E48602
:1018B000128E118E81E026960FB6F894DEBF0FBE11
:1018C000CDBFDF91CF911F910F91FF90EF90DF90EF
:1018D000CF90089580E0EFCFAF92BF92CF92DF928A
:1018E000EF92FF920F931F93CF93DF9300D000D01E
:1018F00000D0CDB7DEB7082F6B0180E591E00E94E4
:10190000DF009E012F5F3F4F7901590110E063E036
:1019100070E0812F0E94D007F50181935F01882339
:1019200041F11F5F143099F710E0F70181917F01B9
:101930008D31D1F08831C1F08A518230A8F01F5F1B
:10194000143099F7812F26960FB6F894DEBF0FBE9C
:10195000CDBFDF91CF911F910F91FF90EF90DF905E
:10196000CF90BF90AF90089560E170E0812F0E940A
:10197000ED07E12EF12C83EE93E00197F1F7402F74
:1019800070E060E0812F0E94A2054FEF62E070E0FE
:10199000812F0E94A205B601CD2889F48091000113
:1019A0009091010101968115F0EC9F0798F19093B9
:1019B0000101809300016091000170910101812F6C
:1019C0000E948D0561E070E0812F0E94ED0727E005
:1019D0002E9DC0012F9D900D11249C01215E3D4F35
:1019E0007901F9011182108222E030E0AE014B5FF3
:1019F0005F4F68E270E0812F0E94430B8D819E81D2
:101A0000982789279827F701938382831682158266
:101A1000148298CF80E090ECCACFCF92DF92EF9201
:101A2000FF921F93CF93DF93EC017B016A018C85BA
:101A3000843048F40E942208882319F08C850E9483
:101A4000FD0784E08C87F70182819381A481B581B1
:101A50000097A105B10551F490E080E0DF91CF91AE
:101A60001F91FF90EF90DF90CF9008958F3F9F4F91
:101A7000AF4FBF4F89F380913F02811103C084E0D3
:101A80008C87EACF70E060E081E20E946C0C182F36
:101A90008C87843008F780E591E00E94DF00A70181
:101AA0004E5F5F4F24E030E06CE070E0812F0E94D9
:101AB0006705B601812F0E94780564E070E0812FF0
:101AC0000E94ED070E9484026B017C018C850E94BC
:101AD0002208873109F18C31F9F0882309F4BCCF51
:101AE0000E948402AB01BC014C195D096E097F099B
:101AF0008D859E85B0E0A0E084179507A607B707FF
:101B000038F061E070E080E090E00E945202DECFA9
:101B10008C850E940908B3CF81E090E09FCF0F939E
:101B20001F93CF93DF93EC018B01888D843010F4E9
:101B30000E94090880913F02811107C094E0988FAC
:101B4000DF91CF911F910F910895B80182E00E941B
:101B50006C0C888F843030F41D870C871A8E198E98
:101B600081E0EECF80E0ECCF7F928F929F92AF9298
:101B7000BF92CF92DF92EF92FF920F931F93CF937A
:101B8000DF9300D0CDB7DEB7782E8B014A01590123
:101B900022E030E0AE014F5F5F4F64E270E00E94F0
:101BA000430BE980FA80FE24EF24FE24E00EF11EB0
:101BB0009701377040913F02072D10E0433309F041
:101BC00042C0085F1F4F102F0027110F110F110F78
:101BD000C901800F911F4733C9F1A9014A0D5B1D4F
:101BE0004130584098F160E078E06B01C21AD30AA6
:101BF000A601B4010E949604A5014C195D09B40127
:101C00006C0D7D1DC8010E949604EA0CFB1CF98234
:101C1000EA8222E030E0AE014F5F5F4F64E270E0A5
:101C2000872D0E9467050F900F90DF91CF911F9134
:101C30000F91FF90EF90DF90CF90BF90AF909F906B
:101C40008F907F900895005F1F4FBDCFA501B40115
:101C5000DACFEF92FF921F93CF93DF9300D0CDB7EF
:101C6000DEB7182F22E030E0AE014F5F5F4F60E239
:101C700070E00E94430BE980FA80FE24EF24FE24EA
:101C800022E030E0AE014F5F5F4F60E270E0812FF5
:101C90000E94430B89819A81982789279827E81603
:101CA000F90689F487E0189FF0011124E15EFD4FE9
:101CB000F582E482C7010F900F90DF91CF911F91C1
:101CC000FF90EF9008957C01DBCF1F93CF93DF93BC
:101CD000182F80E591E00E94DF00812F0E94290EDD
:101CE000EC0163E070E0812F0E94D007873121F082
:101CF0008C3111F0D0E0C0E0CE01DF91CF911F9187
:101D00000895CF93DF93EC018C85843060F40E94BA
:101D10002208873111F08C3131F48C850E94650ED8
:101D20008115984088F3DF91CF910895FC01848557
:101D3000843010F40C94650E90E080E008959F923A
:101D4000AF92BF92CF92DF92EF92FF920F931F93C9
:101D5000CF93DF938C015B01942EE52EFC01C688A6
:101D6000D788F08C80E591E00E94DF008F2D0E94E3
:101D7000290EC92DDE2D8C179D0708F4EC019E015C
:101D8000A501B6018F2D0E94B40DF80186899789AF
:101D90008C0F9D1F978B868BCE01DF91CF911F916A
:101DA0000F91FF90EF90DF90CF90BF90AF909F90FA
:101DB00008958F929F92AF92BF92CF92DF92EF924F
:101DC000FF920F931F93CF936C015B018A01FC017B
:101DD000C485C430F0F57A014130584018F0E12C48
:101DE00088E0F82E80E591E00E94DF008C2F0E94B1
:101DF000290E4C0163E070E08C2F0E94D0078731E0
:101E000011F08C3149F58E149F0460F380E591E068
:101E10000E94DF009701A50170E060E08C2F0E9416
:101E2000B40D60E270E08C2F0E94ED0762E070E07C
:101E30008C2F0E94D00784FD17C063E070E08C2FC8
:101E40000E94D00781110BC081E090E0F6019383DE
:101E5000828310E000E010C0F12CE12CD7CF80E5A8
:101E600091E00E94DF00E2CF40E162E070E08C2F61
:101E70000E94A205EF2841F3C801CF911F910F9155
:101E8000FF90EF90DF90CF90BF90AF909F908F909A
:101E90000895FF920F931F93CF93DF9300D0CDB798
:101EA000DEB7F82E22E030E0AE014F5F5F4F66E212
:101EB00070E00E94430B09811A8110270127102727
:101EC00022E030E0AE014F5F5F4F66E270E08F2DA1
:101ED0000E94430B89819A819827892798270817A0
:101EE000190749F4C8010F900F90DF91CF911F910E
:101EF0000F91FF9008958C01E3CF1F93CF93DF9351
:101F0000182F87E0189FE0011124C15EDD4F888102
:101F10009981009761F480E591E00E94DF00812FB4
:101F20000E94490F2E81821B910999838883DF913A
:101F3000CF911F910895FC018485843010F40C9496
:101F40007D0F90E080E008954F925F927F928F9294
:101F50009F92AF92BF92CF92DF92EF92FF920F9338
:101F60001F93CF93DF9300D0CDB7DEB7782E6B01F0
:101F70004A01A82EB12C27E0829FC0011124FC0148
:101F8000E15EFD4F7F010081118180E591E00E94BB
:101F9000DF000815190554F4872D0E94490FF70139
:101FA00026818C01021B1109118300830115110583
:101FB00029F563E070E0872D0E94D007843159F045
:101FC000882349F001E010E08C3111F410E000E0CA
:101FD000119501951109C8010F900F90DF91CF91D4
:101FE0001F910F91FF90EF90DF90CF90BF90AF9037
:101FF0009F908F907F905F904F90089580169106EC
:102000000CF4840187E08A9DF0018B9DF00D112472
:10201000E15EFD4FE280F380C114D10451F127014C
:10202000F7E05F22872D0E945905840D951D2091B0
:102030003F02273309F453C09801240D351D213088
:10204000384008F44CC020E038E049018418950875
:10205000A401B6010E9445072601480C591C6801DD
:10206000C818D908872D0E945905A601B2010E94FF
:102070004507E00EF11E87E08A9DF0018B9DF00D73
:102080001124E15EFD4FF382E28220813181201B29
:10209000310B318320838681800F912F911D8A3FE0
:1020A000910510F4232BF1F487E08A9DF0018B9DBC
:1020B000F00D1124E15EFD4F1682F982EA8222E0E2
:1020C00030E0AE014F5F5F4F68E270E0872D0E9405
:1020D000670560E470E0872D0E94ED077CCFA801C2
:1020E000B601C5CF868377CFCF93DF93FC01218DD7
:1020F000328D2115310529F48FEF9FEFDF91CF91BC
:102100000895EC01808D4217530708F0A9010E9441
:10211000A40F1816190684F7298D3A8D281B390B40
:102120003A8F298FEBCF0F931F93CF93DF931F929B
:10213000CDB7DEB7FC01218D328D232B41F48FEF1B
:102140009FEF0F90DF91CF911F910F9108958C0118
:1021500041E050E0BE016F5F7F4FFC01808D0E9427
:10216000A40F181619065CF7F801818D928D01975E
:10217000928F818F898190E0E4CFCF93DF931F927C
:10218000CDB7DEB741E050E0BE016F5F7F4FFC018D
:1021900084850E94A40F1816190634F4898190E0F2
:1021A0000F90DF91CF9108958FEF9FEFF9CFFC0152
:1021B0008485843010F40C94A40F90E080E008959E
:1021C0000F931F93CF93DF9300D0CDB7DEB7FC0101
:1021D00024852430E0F48C0180E591E00E94DF004A
:1021E00022E030E0AE014F5F5F4F60E170E0F80148
:1021F00084850E94430B89819A8198278927982793
:102200000F900F90DF91CF911F910F91089590E063
:1022100080E0F6CF0F931F93CF93DF9300D0CDB71D
:10222000DEB7FC0124852430E0F48C0180E591E0E8
:102230000E94DF0022E030E0AE014F5F5F4F64E0BC
:1022400070E0F80184850E94430B89819A81982768
:10225000892798270F900F90DF91CF911F910F91B1
:10226000089590E080E0F6CF0F931F93CF93DF9314
:10227000CDB7DEB728970FB6F894DEBF0FBECDBF3F
:102280008C01D80159964D915C915A974115510591
:1022900051F0ED91FC91048CF58DE02D70E060E043
:1022A000C8010995EECFF801808D0E947D0F892B22
:1022B000B1F148E050E0BE016F5F7F4FD801589602
:1022C0008C910E94A40F18161906F4F4D8015096A8
:1022D00084E0FE01319601900D928A95E1F78D819F
:1022E00090E0982F88272E81820F911DF801958B01
:1022F000848B8F81282F30E0322F22278885820F10
:10230000932F911D928F818F28960FB6F894DEBF80
:102310000FBECDBFDF91CF911F910F91089590E037
:1023200080E0F2CF4F925F926F927F928F929F9256
:10233000AF92BF92CF92DF92EF92FF920F931F93D3
:10234000CF93DF93CDB7DEB763970FB6F894DEBFB8
:102350000FBECDBF7C016B013A01FB0120E090E094
:1023600080E06AE03191332309F461C040ED430F0E
:102370004A3008F04DC0689FA001699F500D11249C
:10238000CA01C097830F911D37FD9A958F3F910524
:1023900049F340F3F7014281538164817581809153
:1023A000110390911203A0911303B09114034817E5
:1023B00059076A077B0709F40DC28701085F1F4FA1
:1023C0000E9484026F7077277C5FC8010E948F0D86
:1023D000813009F004C28FE891E09A838983F70184
:1023E00082819381A481B5818B839C83AD83BE83DD
:1023F00045E350E0BE016F5F7F4FC8010E94F805C2
:10240000892BA9F5D12CC12CC8010E94150817C031
:102410003E3209F0BFCF233009F4BCCFD301A20F65
:10242000B11D12968C932F5F90E080E09BCF2330FC
:1024300009F0B0CFF3018583CC24C394D12CC6011D
:1024400063960FB6F894DEBF0FBECDBFDF91CF917C
:102450001F910F91FF90EF90DF90CF90BF90AF90C2
:102460009F908F907F906F905F904F9008950E9403
:102470008402F7017783668342E050E0B7016A5F28
:102480007F4FC8010E949F0E81E090E09A8389836C
:1024900042E050E0BE016F5F7F4FC8010E949F0E77
:1024A00080E091E09A83898342E050E0BE016F5F53
:1024B0007F4FC8010E949F0E1A82198242E050E0AD
:1024C000BE016F5F7F4FC8010E949F0E42E050E047
:1024D000BE016F5F7F4FC8010E949F0E42E050E037
:1024E000BE016F5F7F4FC8010E949F0E5601F6012B
:1024F0008081882301F16501F60181912F018823F4
:1025000011F08E32B1F446018A189B081814190490
:1025100074F48D8641E050E0BE01635F7F4FC801D7
:102520000E949F0EA401B501C8010E949F0E520196
:10253000DECF6201E1CF1D8641E050E0BE01635F66
:102540007F4FC8010E949F0EC12CDD24D394DA82F4
:10255000C98242E050E0BE016F5F7F4FC8010E9418
:102560009F0EDA82C98242E050E0BE016F5F7F4F6A
:10257000C8010E949F0EC8010E948908892B09F496
:1025800041CFF3E0AF2EB12C230122E0420E511CCB
:10259000D4C0F7014281538164817581808D918D12
:1025A000A28DB38D481759076A077B0709F008C148
:1025B000848D958DC59709F003C181A192A15DEF2E
:1025C000C52EDD24DA940C970CF4ADC04CE050E03D
:1025D000BE016F5F7F4FC8010E9474108B819C8188
:1025E0009827892798279A8B898BF70146815781ED
:1025F00029813A814217530709F0E7C097FFE5C0E8
:102600008F7092703BEFC32EDD24DA94892B09F092
:102610008AC06F8078847624672476242AEFC22EBD
:10262000DD24DA946114710409F47DC0D12CC12C2D
:102630008D819E81982789279827C816D906F8F496
:1026400041E050E0BE01635F7F4FC8010E947410FB
:102650004D85442331F050E070E060E0C8010E94F5
:1026600074108D858111ECCF44E050E070E060E0A3
:10267000C8010E947410FFEFCF1ADF0AD9CF912C46
:10268000812C41E050E0BE016D5E7F4FC8010E9489
:1026900074104B89842F807C09F06CC0442331F086
:1026A00050E070E060E0C8010E9474108B898111D5
:1026B000E8CF42E050E0BE01615F7F4FC8010E9459
:1026C000741042E050E0BE01635F7F4FC8010E947A
:1026D000741044E050E070E060E0C8010E947410A3
:1026E00042E050E0BE016F5E7F4FC8010E9474104F
:1026F0008F85988949895A898115914009F043C08D
:10270000CD84DE84DC24CD24DC2481E0C816D10411
:10271000D1F54115544009F04AC044E050E0B201FF
:10272000C8010E94741021E0A21AB10809F46CCE0D
:10273000FFEFCF16DF0609F067CE0E9484023B014F
:102740004C01C8010E943411181619060CF421CF4F
:102750000E948402661977098809990969387341CA
:102760008105910548F562E370E080E090E00E9409
:102770005202E7CF41E050E070E060E0C8010E9403
:1027800074101B8A93CF54274527542770E060E0CC
:10279000C8010E947410FFEF8F1A9F0A6814790411
:1027A00009F06FCF96EFC92EDD24DA94BCCFE7EFA6
:1027B000CE2EDD24DA94B7CFCC24CA94DC2CB3CF50
:1027C0006EEFC62EDD24DA94AECF4CEFC42EDD249E
:1027D000DA94A9CF8EEFC82EDD24DA9430CED12C36
:1027E000C12C2DCECF92DF92EF92FF920F931F93C9
:1027F000CF93DF93CDB7DEB7AF970FB6F894DEBFB8
:102800000FBECDBF7C016A010FE811E01A83098376
:102810001C861B8688EE93E0A0E0B0E08D879E8743
:10282000AF87B88B89E191E09A878987188F0F8BE2
:10283000198E1A8E1B8E1C8E84E089A31BA70AA7F3
:102840001CA61DA61EA61FA6809105039091060337
:10285000A0910703B09108038EA39FA3A8A7B9A7CF
:102860008B839C83AD83BE8318861F82AE01465D39
:102870005F4FCE0101960E94921181309105B1F413
:10288000D701ED91FC910488F589E02D1DA30CA3DF
:102890008CA59DA5AEA5BFA58EA39FA3A8A7B9A7EC
:1028A000A601BE016C5D7F4FC7010995AF960FB6BB
:1028B000F894DEBF0FBECDBFDF91CF911F910F9176
:1028C000FF90EF90DF90CF900895CF92DF92EF923C
:1028D000FF920F931F93CF93DF93CDB7DEB7AF97E0
:1028E0000FB6F894DEBF0FBECDBF8C016B017A012D
:1028F0008FE891E09A8389831B821C821D821E824D
:102900001C861B8648EE53E060E070E04D875E87D2
:102910006F87788B29E131E03A872987988F8F8BF1
:10292000198E1A8E1B8E1C8E24E029A39BA78AA7C2
:102930001CA61DA61EA61FA6D8011C968C9184302D
:1029400060F40E942208882321F0F80184850E9407
:10295000FD0784E0D8011C968C938091050390912B
:102960000603A0910703B09108038EA39FA3A8A715
:10297000B9A78B839C83AD83BE8318861F82AE016B
:10298000465D5F4FB601CE0101960E9492110097FD
:10299000C1F0D801ED91FC910684F785E02D8FE818
:1029A00091E09DA38CA38CA59DA5AEA5BFA58EA3EC
:1029B0009FA3A8A7B9A7A701BE016C5D7F4FC8015F
:1029C0000995AF960FB6F894DEBF0FBECDBFDF916D
:1029D000CF911F910F91FF90EF90DF90CF900895CE
:1029E000EF92FF920F931F93CF93DF9300D000D00D
:1029F000CDB7DEB78C017B01FB0184858430A8F064
:102A00008FE891E0F801918380831282138214820F
:102A10001582C8010F900F900F900F90DF91CF910A
:102A20001F910F91FF90EF90089580E591E00E9433
:102A3000DF0024E030E0AE014F5F5F4F6CE070E0FC
:102A4000F70184850E94430B8FE891E0F8019183A0
:102A5000808389819A81AB81BC8182839383A483A3
:102A6000B583D7CF1F920F920FB60F9211242F93D9
:102A70003F934F935F936F937F938F939F93AF9306
:102A8000BF93EF93FF9382E492E00E949E01FF9137
:102A9000EF91BF91AF919F918F917F916F915F91D6
:102AA0004F913F912F910F900FBE0F901F9018954F
:102AB0001F920F920FB60F9211242F938F939F9313
:102AC000EF93FF93E0915202F09153028081E091E5
:102AD0005802F091590282FD1BC0908180915B02E7
:102AE0008F5F8F7320915C02821741F0E0915B024F
:102AF000F0E0EE5BFD4F958F80935B02FF91EF91CD
:102B00009F918F912F910F900FBE0F901F9018954E
:102B10008081F4CF1F920F920FB60F9211242F9342
:102B20003F938F939F93AF93BF93809117029091A0
:102B30001802A0911902B0911A023091160223E0F6
:102B4000230F2D3758F50196A11DB11D20931602B4
:102B50008093170290931802A0931902B0931A025F
:102B600080911B0290911C02A0911D02B0911E0247
:102B70000196A11DB11D80931B0290931C02A0938E
:102B80001D02B0931E02BF91AF919F918F913F9113
:102B90002F910F900FBE0F901F90189526E8230FCE
:102BA0000296A11DB11DD2CFE2E4F2E0138212829F
:102BB00048EE53E060E070E044835583668377839A
:102BC00083E491E09183808385EC90E0958784870E
:102BD00084EC90E09787868780EC90E0918B808BE7
:102BE00081EC90E0938B828B82EC90E0958B848BD0
:102BF00086EC90E0978B868B118E128E138E148E3E
:102C0000EFEDF2E08FE891E09183808312821382EE
:102C100014821582E5EEF2E09183808312821382A2
:102C200014821582EBEEF2E091838083128213828C
:102C300014821582E1EFF2E0918380831282138285
:102C400014821582E7EFF2E091838083128213826F
:102C500014821582EDEFF2E0918380831282138259
:102C600014821582E9E0F3E091838083128213825B
:102C700014821582E3E0F3E0918380831282138251
:102C800014821582EFE0F3E0918380831282138235
:102C900014821582E5E1F3E091838083128213822E
:102CA00014821582E7EDF3E0918380831282138210
:102CB00014821582E1EDF3E0918380833CEA328354
:102CC00020E123831482A4E6A583EBECF3E0918357
:102CD000808332832383148222E02583ECEBF3E0AC
:102CE00013821282448355836683778321E631E021
:102CF0003183208324E0248728EE33E0368725873C
:102D0000ABE1B3E013961C921E92129725E531E0D9
:102D100011963C932E939093AF038093AE03109241
:102D2000B0031092B1031092B2031092B3038FEF6D
:102D30009FEF9093BB038093BA031596FC93EE9399
:102D400014971092B9031092B8030895CF93DF93AC
:102D5000CDB7DEB728970FB6F894DEBF0FBECDBF54
:102D6000789484B5826084BD84B5816084BD85B566
:102D7000826085BD85B5816085BD80916E00816072
:102D800080936E0010928100809181008260809318
:102D9000810080918100816080938100809180001A
:102DA0008160809380008091B10084608093B10045
:102DB0008091B00081608093B00080917A0084603F
:102DC00080937A0080917A00826080937A0080916B
:102DD0007A00816080937A0080917A008068809385
:102DE0007A001092C100E0915202F091530282E009
:102DF0008083E0915202F09153021082E0914E02E2
:102E0000F0914F021082E0915002F091510280E166
:102E1000808310925A02E0915602F091570286E0A8
:102E20008083E0915402F09155028081806180831B
:102E3000E0915402F0915502808188608083E09196
:102E40005402F0915502808180688083E0915402A1
:102E5000F091550280818F7D80830FE811E01A8305
:102E600009838091CD039091CE03A091CF03B091BF
:102E7000D0038B839C83AD83BE83CE0101960E94D9
:102E8000010187EC96E09093AD038093AC031A8325
:102E900009838091D3039091D403A091D503B0917D
:102EA000D6038B839C83AD83BE83CE0101960E94A3
:102EB000E3086CED75E080E090E00E9452020E9411
:102EC000A900811128C13EEFE32EFF24FA948E0160
:102ED000085F1F4F42E0742E5FE0952E6CEFC62E08
:102EE000DD24DA947FE8A72E71E0B72E0E94A900B6
:102EF000811111C169EA71E082E492E00E946C06DE
:102F00000E94A9008111EFC06091B4037091B503D4
:102F100080911F0390912003DC01ED91FC91409181
:102F2000B6035091B7036115710509F4ADC000886F
:102F3000F189E02D09958130910509F0E7C0909362
:102F4000A2038093A10387E0EEE0F1E0DE01119699
:102F500001900D928A95E1F7FE013196A6E2B3E069
:102F600081918D930E171F07D9F770922D03109240
:102F70002E0390922F034FE050E061E273E087EC64
:102F800091E00E948700AC014550510961E273E075
:102F900080E10E9490020E9484026093A3037093D8
:102FA000A4038093A5039093A6036093A703709353
:102FB000A8038093A9039093AA0380911F03909183
:102FC0002003DC01ED91FC910084F185E02D099551
:102FD000892B09F06EC00E9484022091A7033091D2
:102FE000A8034091A9035091AA03621B730B840BA1
:102FF000950B68397A4381059105F8F2D092BB03AD
:10300000C092BA0380911F0390912003DC01ED91DF
:10301000FC910488F589E02D09956FED71E082E45B
:1030200092E00E946C062090BA033090BB03032C00
:10303000000C440855082AE0B201A10157FE0DC05A
:103040006DE282E492E00E94C00144275527BA0154
:1030500042195309640975092AE082E492E00E944A
:103060007B066BEE71E082E492E00E946C0666EAF9
:1030700071E082E492E00E946C0668E873E180E00F
:1030800090E00E94520232CF0684F785E02DBA828A
:10309000A9822090B0033090B1034090B2035090C9
:1030A000B3032B823C824D825E82BE016F5F7F4FF5
:1030B00041CFC8010E942C03049709F0A3CF80914F
:1030C000240381111DC00E9484026093A7037093A2
:1030D000A8038093A9039093AA031092AB031092C4
:1030E000BB031092BA0365ED71E082E492E00E94A6
:1030F0006C0666EA71E082E492E00E946C06F6CE0D
:1031000090E09093BB038093BA037CCFF092BB0313
:10311000E092BA0382CF0E94A900882309F444C038
:103120000E9484022B013C018091A7039091A80387
:10313000A091A903B091AA03A3019201281B390B06
:103140004A0B5B0BDA01C90189399A43A105B10524
:10315000B0F48091A3039091A403A091A503B09132
:10316000A603A3019201281B390B4A0B5B0BDA0162
:10317000C90189399A43A105B10508F447C0809176
:103180001F03909120032091AB032223E1F02CEF49
:103190003FEF3093BB032093BA03DC01ED91FC9128
:1031A0000488F589E02D099512E300E225E3F22E6B
:1031B0000E94A9008111E0C060ED77E080E090E01E
:1031C0000E945202F5CF20EC20932103109222039B
:1031D000DC01ED91FC910280F381E02D42E050E0B2
:1031E00061E273E009954092A3035092A4036092B8
:1031F000A5037092A6034092A7035092A803609281
:10320000A9037092AA0381E08093AB0380911F030E
:1032100090912003DC01ED91FC910084F185E02D7B
:103220000995892B09F4C0CFCE0101960E942C0389
:103230008C01892B09F49DC04092A7035092A803EA
:103240006092A9037092AA0380912103807F80334A
:1032500009F072C08091AC039091AD03892B09F401
:10326000A3CFE980F12CF701E55EFC4FC780D12C9C
:10327000DC2CCC248085C80ED11C97012D5D3C4FE1
:103280005901B7016C5D7C4FA601C9010E94021A69
:10329000B6016E0D7F1DDB01A55EBC4F18961C921A
:1032A00018970E191F09809121038670982EE091BE
:1032B000AC03F091AD0332E0831334C01996EC9067
:1032C0001997F12CFE2CEE241A968C91E80EF11C25
:1032D0000C191D09A801455051096A5D7C4FC501B3
:1032E000099580E48093210390922203F0922303B6
:1032F000E092240380911F0390912003DC01ED9163
:10330000FC910280F381E02D44E050E061E273E043
:1033100009954092A3035092A4036092A503709272
:10332000A60342CF0C191D09A801435051096C5D39
:103330007C4FC501099538CF803CA9F480ED80937E
:1033400021031092220380911F0390912003DC013E
:10335000ED91FC910280F381E02D42E050E061E2CA
:1033600073E0099521CF803D09F01ECF1092AB0389
:103370001BCF0E94A90018CF45E050E061E273E046
:1033800083E092E00E948700FC01E55EFC4F16831B
:103390000783F086AC014250510961E273E080E39B
:1033A0000E949002882309F407CF68E873E180E067
:1033B00090E006CFA1E21A2EAA1BBB1BFD010DC097
:1033C000AA1FBB1FEE1FFF1FA217B307E407F507D5
:1033D00020F0A21BB30BE40BF50B661F771F881FB1
:1033E000991F1A9469F760957095809590959B0147
:1033F000AC01BD01CF010895EE0FFF1F0590F491C0
:10340000E02D09946817790768F4FB01DC01E40FEB
:10341000F51FA40FB51F02C002900E9241505040FC
:10342000D8F708950C941B1ADC0101C06D9341502C
:103430005040E0F70895FB01DC0102C001900D92BD
:0C34400041505040D8F70895F894FFCF99
:10344C0000C0DEEDBAFEFEED01005E0000000004DF
:10345C004D5154540400000000BF059F0E4E061F32
:10346C00011B0193101A0B8F0D2A0C1508F805F28D
:10347C00138908341174104706370633062F0600DB
:10348C00000000C00120014D010D027E015C0170A5
:10349C000100000000450422044E06D50500000082
:1034AC0000E105D90E960E810E9B0FBD10290B0D58
:1034BC000D6514D71050082E08640661065F06D6F9
:1034CC000555060A11F014E010510600000000FB2F
:1034DC00064D657373616765206172726976656408
:1034EC00205B005D20000D0A00417474656D7074E2
:1034FC00696E67204D51545420636F6E6E65637412
:10350C00696F6E2E2E2E0061726475696E6F436C3E
:10351C0069656E7400636F6E6E65637465640066D6
:10352C0061696C65642C2072633D00207472792093
:10353C00616761696E20696E2035207365636F6EFB
:10354C00647300746F50726F636573732F61726470
:06355C0075696E6F0000AE
:107E0000112484B714BE81FFF0D085E080938100F7
:107E100082E08093C00088E18093C10086E0809377
:107E2000C20080E18093C4008EE0C9D0259A86E02C
:107E300020E33CEF91E0309385002093840096BBD3
:107E4000B09BFECF1D9AA8958150A9F7CC24DD24C4
:107E500088248394B5E0AB2EA1E19A2EF3E0BF2EE7
:107E6000A2D0813461F49FD0082FAFD0023811F036
:107E7000013811F484E001C083E08DD089C08234E0
:107E800011F484E103C0853419F485E0A6D080C0E4
:107E9000853579F488D0E82EFF2485D0082F10E0AE
:107EA000102F00270E291F29000F111F8ED06801E7
:107EB0006FC0863521F484E090D080E0DECF843638
:107EC00009F040C070D06FD0082F6DD080E0C81688
:107ED00080E7D80618F4F601B7BEE895C0E0D1E017
:107EE00062D089930C17E1F7F0E0CF16F0E7DF06D8
:107EF00018F0F601B7BEE89568D007B600FCFDCFD4
:107F0000A601A0E0B1E02C9130E011968C91119780
:107F100090E0982F8827822B932B1296FA010C0160
:107F200087BEE89511244E5F5F4FF1E0A038BF0790
:107F300051F7F601A7BEE89507B600FCFDCF97BE46
:107F4000E89526C08437B1F42ED02DD0F82E2BD052
:107F50003CD0F601EF2C8F010F5F1F4F84911BD097
:107F6000EA94F801C1F70894C11CD11CFA94CF0C13
:107F7000D11C0EC0853739F428D08EE10CD085E9AC
:107F80000AD08FE07ACF813511F488E018D01DD067
:107F900080E101D065CF982F8091C00085FFFCCF94
:107FA0009093C60008958091C00087FFFCCF809118
:107FB000C00084FD01C0A8958091C6000895E0E648
:107FC000F0E098E1908380830895EDDF803219F02E
:107FD00088E0F5DFFFCF84E1DECF1F93182FE3DFCA
:107FE0001150E9F7F2DF1F91089580E0E8DFEE27F6
:047FF000FF270994CA
:027FFE00040479
:0400000300007E007B
:00000001FF
